{
  "contractName": "ethPredictMarket",
  "abi": [
    {
      "inputs": [],
      "stateMutability": "nonpayable",
      "type": "constructor"
    },
    {
      "inputs": [],
      "name": "predictCount",
      "outputs": [
        {
          "internalType": "uint256",
          "name": "",
          "type": "uint256"
        }
      ],
      "stateMutability": "view",
      "type": "function",
      "constant": true
    },
    {
      "inputs": [
        {
          "internalType": "uint256",
          "name": "",
          "type": "uint256"
        }
      ],
      "name": "predicts",
      "outputs": [
        {
          "internalType": "address",
          "name": "predictor",
          "type": "address"
        },
        {
          "internalType": "uint256",
          "name": "value",
          "type": "uint256"
        },
        {
          "internalType": "uint256",
          "name": "amount",
          "type": "uint256"
        }
      ],
      "stateMutability": "view",
      "type": "function",
      "constant": true
    },
    {
      "inputs": [],
      "name": "provisionalNum",
      "outputs": [
        {
          "internalType": "uint256",
          "name": "",
          "type": "uint256"
        }
      ],
      "stateMutability": "view",
      "type": "function",
      "constant": true
    },
    {
      "inputs": [
        {
          "internalType": "address",
          "name": "",
          "type": "address"
        },
        {
          "internalType": "uint256",
          "name": "",
          "type": "uint256"
        }
      ],
      "name": "purchasedPredicts",
      "outputs": [
        {
          "internalType": "uint256",
          "name": "",
          "type": "uint256"
        }
      ],
      "stateMutability": "view",
      "type": "function",
      "constant": true
    },
    {
      "inputs": [
        {
          "internalType": "address",
          "name": "",
          "type": "address"
        }
      ],
      "name": "unclaimed",
      "outputs": [
        {
          "internalType": "uint256",
          "name": "",
          "type": "uint256"
        }
      ],
      "stateMutability": "view",
      "type": "function",
      "constant": true
    },
    {
      "inputs": [
        {
          "internalType": "uint256",
          "name": "_value",
          "type": "uint256"
        },
        {
          "internalType": "uint256",
          "name": "_amount",
          "type": "uint256"
        }
      ],
      "name": "makePredict",
      "outputs": [],
      "stateMutability": "nonpayable",
      "type": "function"
    },
    {
      "inputs": [
        {
          "internalType": "uint256",
          "name": "_id",
          "type": "uint256"
        }
      ],
      "name": "showResult",
      "outputs": [
        {
          "internalType": "uint256",
          "name": "",
          "type": "uint256"
        }
      ],
      "stateMutability": "nonpayable",
      "type": "function"
    },
    {
      "inputs": [
        {
          "internalType": "uint256",
          "name": "_id",
          "type": "uint256"
        }
      ],
      "name": "buyPredict",
      "outputs": [],
      "stateMutability": "payable",
      "type": "function",
      "payable": true
    },
    {
      "inputs": [
        {
          "internalType": "uint256",
          "name": "_id",
          "type": "uint256"
        }
      ],
      "name": "viewPredict",
      "outputs": [
        {
          "components": [
            {
              "internalType": "address",
              "name": "predictor",
              "type": "address"
            },
            {
              "internalType": "uint256",
              "name": "value",
              "type": "uint256"
            },
            {
              "internalType": "uint256",
              "name": "amount",
              "type": "uint256"
            }
          ],
          "internalType": "struct ethPredictMarket.predict",
          "name": "",
          "type": "tuple"
        }
      ],
      "stateMutability": "view",
      "type": "function",
      "constant": true
    },
    {
      "inputs": [],
      "name": "claim",
      "outputs": [],
      "stateMutability": "nonpayable",
      "type": "function"
    }
  ],
  "bytecode": "0x608060405234801561001057600080fd5b5060006003819055506064600481905550611008806100306000396000f3fe6080604052600436106100915760003560e01c806362cd4d6c1161005957806362cd4d6c1461018f5780637498e038146101ab5780637e199acf146101d6578063ed6ad2f814610213578063f51f9a1d1461025057610091565b806316221fc2146100965780633fe73a64146100bf5780634e71d92d146100fc578063505bd3da146101135780635a763e9514610150575b600080fd5b3480156100a257600080fd5b506100bd60048036038101906100b891906109b2565b61027b565b005b3480156100cb57600080fd5b506100e660048036038101906100e191906109f2565b61033a565b6040516100f39190610ab1565b60405180910390f35b34801561010857600080fd5b506101116104da565b005b34801561011f57600080fd5b5061013a60048036038101906101359190610af8565b610699565b6040516101479190610b34565b60405180910390f35b34801561015c57600080fd5b50610177600480360381019061017291906109f2565b6106b1565b60405161018693929190610b5e565b60405180910390f35b6101a960048036038101906101a491906109f2565b6106fb565b005b3480156101b757600080fd5b506101c061084c565b6040516101cd9190610b34565b60405180910390f35b3480156101e257600080fd5b506101fd60048036038101906101f89190610b95565b610852565b60405161020a9190610b34565b60405180910390f35b34801561021f57600080fd5b5061023a600480360381019061023591906109f2565b610883565b6040516102479190610b34565b60405180910390f35b34801561025c57600080fd5b5061026561093a565b6040516102729190610b34565b60405180910390f35b60405180606001604052803373ffffffffffffffffffffffffffffffffffffffff16815260200183815260200182815250600080600354815260200190815260200160002060008201518160000160006101000a81548173ffffffffffffffffffffffffffffffffffffffff021916908373ffffffffffffffffffffffffffffffffffffffff16021790555060208201518160010155604082015181600201559050506003600081548092919061033190610c04565b91905055505050565b610342610940565b6000805b600160003373ffffffffffffffffffffffffffffffffffffffff1673ffffffffffffffffffffffffffffffffffffffff1681526020019081526020016000208054905081101561040a5783600160003373ffffffffffffffffffffffffffffffffffffffff1673ffffffffffffffffffffffffffffffffffffffff16815260200190815260200160002082815481106103e2576103e1610c4c565b5b9060005260206000200154036103f757600191505b808061040290610c04565b915050610346565b508061044b576040517f08c379a000000000000000000000000000000000000000000000000000000000815260040161044290610cd8565b60405180910390fd5b6000808481526020019081526020016000206040518060600160405290816000820160009054906101000a900473ffffffffffffffffffffffffffffffffffffffff1673ffffffffffffffffffffffffffffffffffffffff1673ffffffffffffffffffffffffffffffffffffffff16815260200160018201548152602001600282015481525050915050919050565b6000600260003373ffffffffffffffffffffffffffffffffffffffff1673ffffffffffffffffffffffffffffffffffffffff1681526020019081526020016000205490506000600260003373ffffffffffffffffffffffffffffffffffffffff1673ffffffffffffffffffffffffffffffffffffffff16815260200190815260200160002081905550600081116105a6576040517f08c379a000000000000000000000000000000000000000000000000000000000815260040161059d90610d44565b60405180910390fd5b804710156105e9576040517f08c379a00000000000000000000000000000000000000000000000000000000081526004016105e090610db0565b60405180910390fd5b60003373ffffffffffffffffffffffffffffffffffffffff168260405161060f90610e01565b60006040518083038185875af1925050503d806000811461064c576040519150601f19603f3d011682016040523d82523d6000602084013e610651565b606091505b5050905080610695576040517f08c379a000000000000000000000000000000000000000000000000000000000815260040161068c90610e62565b60405180910390fd5b5050565b60026020528060005260406000206000915090505481565b60006020528060005260406000206000915090508060000160009054906101000a900473ffffffffffffffffffffffffffffffffffffffff16908060010154908060020154905083565b6000806000838152602001908152602001600020600201549050803414610757576040517f08c379a000000000000000000000000000000000000000000000000000000000815260040161074e90610ece565b60405180910390fd5b600160003373ffffffffffffffffffffffffffffffffffffffff1673ffffffffffffffffffffffffffffffffffffffff168152602001908152602001600020829080600181540180825580915050600190039060005260206000200160009091909190915055806002600080600086815260200190815260200160002060000160009054906101000a900473ffffffffffffffffffffffffffffffffffffffff1673ffffffffffffffffffffffffffffffffffffffff1673ffffffffffffffffffffffffffffffffffffffff16815260200190815260200160002060008282546108419190610eee565b925050819055505050565b60045481565b6001602052816000526040600020818154811061086e57600080fd5b90600052602060002001600091509150505481565b600080600080848152602001908152602001600020600101546004546108a99190610f44565b905060008110156108cf576002816108c19190610f78565b816108cc9190610f44565b90505b8060646108dc9190610f44565b600260003373ffffffffffffffffffffffffffffffffffffffff1673ffffffffffffffffffffffffffffffffffffffff168152602001908152602001600020600082825461092a9190610eee565b9250508190555080915050919050565b60035481565b6040518060600160405280600073ffffffffffffffffffffffffffffffffffffffff16815260200160008152602001600081525090565b600080fd5b6000819050919050565b61098f8161097c565b811461099a57600080fd5b50565b6000813590506109ac81610986565b92915050565b600080604083850312156109c9576109c8610977565b5b60006109d78582860161099d565b92505060206109e88582860161099d565b9150509250929050565b600060208284031215610a0857610a07610977565b5b6000610a168482850161099d565b91505092915050565b600073ffffffffffffffffffffffffffffffffffffffff82169050919050565b6000610a4a82610a1f565b9050919050565b610a5a81610a3f565b82525050565b610a698161097c565b82525050565b606082016000820151610a856000850182610a51565b506020820151610a986020850182610a60565b506040820151610aab6040850182610a60565b50505050565b6000606082019050610ac66000830184610a6f565b92915050565b610ad581610a3f565b8114610ae057600080fd5b50565b600081359050610af281610acc565b92915050565b600060208284031215610b0e57610b0d610977565b5b6000610b1c84828501610ae3565b91505092915050565b610b2e8161097c565b82525050565b6000602082019050610b496000830184610b25565b92915050565b610b5881610a3f565b82525050565b6000606082019050610b736000830186610b4f565b610b806020830185610b25565b610b8d6040830184610b25565b949350505050565b60008060408385031215610bac57610bab610977565b5b6000610bba85828601610ae3565b9250506020610bcb8582860161099d565b9150509250929050565b7f4e487b7100000000000000000000000000000000000000000000000000000000600052601160045260246000fd5b6000610c0f8261097c565b91507fffffffffffffffffffffffffffffffffffffffffffffffffffffffffffffffff8203610c4157610c40610bd5565b5b600182019050919050565b7f4e487b7100000000000000000000000000000000000000000000000000000000600052603260045260246000fd5b600082825260208201905092915050565b7f796f75206861736e27742070757263686173652061727469636c650000000000600082015250565b6000610cc2601b83610c7b565b9150610ccd82610c8c565b602082019050919050565b60006020820190508181036000830152610cf181610cb5565b9050919050565b7f6e6f20756e636c61696d65640000000000000000000000000000000000000000600082015250565b6000610d2e600c83610c7b565b9150610d3982610cf8565b602082019050919050565b60006020820190508181036000830152610d5d81610d21565b9050919050565b7f44657820646f6573206e6f74206861766520656e6f7567682066756e64730000600082015250565b6000610d9a601e83610c7b565b9150610da582610d64565b602082019050919050565b60006020820190508181036000830152610dc981610d8d565b9050919050565b600081905092915050565b50565b6000610deb600083610dd0565b9150610df682610ddb565b600082019050919050565b6000610e0c82610dde565b9150819050919050565b7f455448207472616e73666572206661696c656400000000000000000000000000600082015250565b6000610e4c601383610c7b565b9150610e5782610e16565b602082019050919050565b60006020820190508181036000830152610e7b81610e3f565b9050919050565b7f496e73756666696369656e742066756e64000000000000000000000000000000600082015250565b6000610eb8601183610c7b565b9150610ec382610e82565b602082019050919050565b60006020820190508181036000830152610ee781610eab565b9050919050565b6000610ef98261097c565b9150610f048361097c565b9250827fffffffffffffffffffffffffffffffffffffffffffffffffffffffffffffffff03821115610f3957610f38610bd5565b5b828201905092915050565b6000610f4f8261097c565b9150610f5a8361097c565b925082821015610f6d57610f6c610bd5565b5b828203905092915050565b6000610f838261097c565b9150610f8e8361097c565b9250817fffffffffffffffffffffffffffffffffffffffffffffffffffffffffffffffff0483118215151615610fc757610fc6610bd5565b5b82820290509291505056fea26469706673582212201d107016cc81b94f2572cf6d5b671510510a5ad88fbd0833de717b0f33b1c5d164736f6c634300080d0033",
  "immutableReferences": {},
  "source": "// SPDX-License-Identifier: Unlicence\r\npragma solidity ^0.8.4;\r\n\r\ncontract ethPredictMarket {\r\n  struct predict {\r\n    address predictor;\r\n    uint value;\r\n    uint amount;\r\n  }\r\n  mapping(uint => predict) public predicts;\r\n  mapping(address => uint[]) public purchasedPredicts;\r\n  mapping(address => uint) public unclaimed;\r\n  uint public predictCount;\r\n  uint public provisionalNum;\r\n\r\n  constructor(){\r\n    predictCount = 0;\r\n    provisionalNum = 100;\r\n  }\r\n\r\n  function makePredict(uint _value, uint _amount) public {\r\n    predicts[predictCount] = predict(msg.sender, _value, _amount);\r\n    predictCount ++;\r\n  }\r\n\r\n  function showResult(uint _id) public returns(uint){\r\n    uint result = provisionalNum - predicts[_id].value;\r\n    if(result < 0){\r\n      result = result - (result*2);\r\n    }\r\n    unclaimed[msg.sender] += 100 - result;\r\n    return result;\r\n  }\r\n\r\n  function buyPredict(uint _id) public payable {\r\n    uint _amount = predicts[_id].amount;\r\n    require(msg.value == _amount, \"Insufficient fund\");    purchasedPredicts[msg.sender].push(_id);\r\n    unclaimed[predicts[_id].predictor] += _amount;\r\n  }\r\n\r\n  function viewPredict(uint _id) public view returns(predict memory) {\r\n    bool viewable = false;\r\n    for(uint i=0;i < purchasedPredicts[msg.sender].length;i++){\r\n      if(purchasedPredicts[msg.sender][i] == _id){\r\n        viewable = true;\r\n      }\r\n    }\r\n    require(viewable, \"you hasn't purchase article\");\r\n    return predicts[_id];\r\n  }\r\n\r\n  function claim() public {\r\n    uint _amount = unclaimed[msg.sender];\r\n    unclaimed[msg.sender] = 0;\r\n    require(_amount > 0, \"no unclaimed\");\r\n    require(address(this).balance >= _amount, \"Dex does not have enough funds\");\r\n    (bool success, ) = payable(msg.sender).call{value: _amount}(\"\");\r\n    require(success, \"ETH transfer failed\");\r\n  }\r\n}\r\n",
  "sourcePath": "/home/kirua/blockchain/product/kxshare/contracts/ethPredictMarket.sol",
  "compiler": {
    "name": "solc",
    "version": "0.8.13+commit.abaa5c0e.Emscripten.clang"
  },
  "schemaVersion": "3.4.7",
  "updatedAt": "2022-05-21T20:37:33.591Z",
  "networkType": "ethereum",
  "devdoc": {
    "kind": "dev",
    "methods": {},
    "version": 1
  },
  "userdoc": {
    "kind": "user",
    "methods": {},
    "version": 1
  }
}