{
  "contractName": "predictMarket",
  "abi": [
    {
      "inputs": [],
      "stateMutability": "nonpayable",
      "type": "constructor"
    },
    {
      "inputs": [],
      "name": "predictCount",
      "outputs": [
        {
          "internalType": "uint256",
          "name": "",
          "type": "uint256"
        }
      ],
      "stateMutability": "view",
      "type": "function",
      "constant": true
    },
    {
      "inputs": [
        {
          "internalType": "uint256",
          "name": "",
          "type": "uint256"
        }
      ],
      "name": "predicts",
      "outputs": [
        {
          "internalType": "address",
          "name": "predictor",
          "type": "address"
        },
        {
          "internalType": "uint256",
          "name": "value",
          "type": "uint256"
        },
        {
          "internalType": "uint256",
          "name": "amount",
          "type": "uint256"
        }
      ],
      "stateMutability": "view",
      "type": "function",
      "constant": true
    },
    {
      "inputs": [],
      "name": "provisionalNum",
      "outputs": [
        {
          "internalType": "uint256",
          "name": "",
          "type": "uint256"
        }
      ],
      "stateMutability": "view",
      "type": "function",
      "constant": true
    },
    {
      "inputs": [
        {
          "internalType": "address",
          "name": "",
          "type": "address"
        },
        {
          "internalType": "uint256",
          "name": "",
          "type": "uint256"
        }
      ],
      "name": "purchasedPredicts",
      "outputs": [
        {
          "internalType": "uint256",
          "name": "",
          "type": "uint256"
        }
      ],
      "stateMutability": "view",
      "type": "function",
      "constant": true
    },
    {
      "inputs": [
        {
          "internalType": "address",
          "name": "",
          "type": "address"
        }
      ],
      "name": "unclaimed",
      "outputs": [
        {
          "internalType": "uint256",
          "name": "",
          "type": "uint256"
        }
      ],
      "stateMutability": "view",
      "type": "function",
      "constant": true
    },
    {
      "inputs": [
        {
          "internalType": "uint256",
          "name": "_value",
          "type": "uint256"
        },
        {
          "internalType": "uint256",
          "name": "_amount",
          "type": "uint256"
        }
      ],
      "name": "makePredict",
      "outputs": [],
      "stateMutability": "nonpayable",
      "type": "function"
    },
    {
      "inputs": [
        {
          "internalType": "uint256",
          "name": "_id",
          "type": "uint256"
        }
      ],
      "name": "showResult",
      "outputs": [
        {
          "internalType": "uint256",
          "name": "",
          "type": "uint256"
        }
      ],
      "stateMutability": "nonpayable",
      "type": "function"
    },
    {
      "inputs": [
        {
          "internalType": "uint256",
          "name": "_id",
          "type": "uint256"
        },
        {
          "internalType": "address",
          "name": "_tokenAddr",
          "type": "address"
        }
      ],
      "name": "buyPredict",
      "outputs": [],
      "stateMutability": "payable",
      "type": "function",
      "payable": true
    },
    {
      "inputs": [
        {
          "internalType": "uint256",
          "name": "_id",
          "type": "uint256"
        }
      ],
      "name": "viewPredict",
      "outputs": [
        {
          "components": [
            {
              "internalType": "address",
              "name": "predictor",
              "type": "address"
            },
            {
              "internalType": "uint256",
              "name": "value",
              "type": "uint256"
            },
            {
              "internalType": "uint256",
              "name": "amount",
              "type": "uint256"
            }
          ],
          "internalType": "struct predictMarket.predict",
          "name": "",
          "type": "tuple"
        }
      ],
      "stateMutability": "view",
      "type": "function",
      "constant": true
    },
    {
      "inputs": [
        {
          "internalType": "address",
          "name": "_tokenAddr",
          "type": "address"
        }
      ],
      "name": "claim",
      "outputs": [],
      "stateMutability": "nonpayable",
      "type": "function"
    }
  ],
  "bytecode": "0x608060405234801561001057600080fd5b50600060038190555060646004819055506110f5806100306000396000f3fe6080604052600436106100905760003560e01c80635a763e95116100595780635a763e951461017d5780637498e038146101bc5780637e199acf146101e7578063ed6ad2f814610224578063f51f9a1d1461026157610090565b8062f286c21461009557806316221fc2146100b15780631e83409a146100da5780633fe73a6414610103578063505bd3da14610140575b600080fd5b6100af60048036038101906100aa9190610ab9565b61028c565b005b3480156100bd57600080fd5b506100d860048036038101906100d39190610af9565b6104df565b005b3480156100e657600080fd5b5061010160048036038101906100fc9190610b39565b61059e565b005b34801561010f57600080fd5b5061012a60048036038101906101259190610b66565b6106f3565b6040516101379190610bf3565b60405180910390f35b34801561014c57600080fd5b5061016760048036038101906101629190610b39565b610893565b6040516101749190610c1d565b60405180910390f35b34801561018957600080fd5b506101a4600480360381019061019f9190610b66565b6108ab565b6040516101b393929190610c47565b60405180910390f35b3480156101c857600080fd5b506101d16108f5565b6040516101de9190610c1d565b60405180910390f35b3480156101f357600080fd5b5061020e60048036038101906102099190610c7e565b6108fb565b60405161021b9190610c1d565b60405180910390f35b34801561023057600080fd5b5061024b60048036038101906102469190610b66565b61092c565b6040516102589190610c1d565b60405180910390f35b34801561026d57600080fd5b506102766109e3565b6040516102839190610c1d565b60405180910390f35b60008060008481526020019081526020016000206002015490506000829050818173ffffffffffffffffffffffffffffffffffffffff166370a08231306040518263ffffffff1660e01b81526004016102e59190610cbe565b602060405180830381865afa158015610302573d6000803e3d6000fd5b505050506040513d601f19601f820116820180604052508101906103269190610cee565b1015610367576040517f08c379a000000000000000000000000000000000000000000000000000000000815260040161035e90610d78565b60405180910390fd5b8073ffffffffffffffffffffffffffffffffffffffff166323b872dd3330856040518463ffffffff1660e01b81526004016103a493929190610d98565b6020604051808303816000875af11580156103c3573d6000803e3d6000fd5b505050506040513d601f19601f820116820180604052508101906103e79190610e07565b50600160003373ffffffffffffffffffffffffffffffffffffffff1673ffffffffffffffffffffffffffffffffffffffff168152602001908152602001600020849080600181540180825580915050600190039060005260206000200160009091909190915055816002600080600088815260200190815260200160002060000160009054906101000a900473ffffffffffffffffffffffffffffffffffffffff1673ffffffffffffffffffffffffffffffffffffffff1673ffffffffffffffffffffffffffffffffffffffff16815260200190815260200160002060008282546104d29190610e63565b9250508190555050505050565b60405180606001604052803373ffffffffffffffffffffffffffffffffffffffff16815260200183815260200182815250600080600354815260200190815260200160002060008201518160000160006101000a81548173ffffffffffffffffffffffffffffffffffffffff021916908373ffffffffffffffffffffffffffffffffffffffff16021790555060208201518160010155604082015181600201559050506003600081548092919061059590610eb9565b91905055505050565b60008190506000600260003373ffffffffffffffffffffffffffffffffffffffff1673ffffffffffffffffffffffffffffffffffffffff1681526020019081526020016000205490506000600260003373ffffffffffffffffffffffffffffffffffffffff1673ffffffffffffffffffffffffffffffffffffffff168152602001908152602001600020819055506000811161066f576040517f08c379a000000000000000000000000000000000000000000000000000000000815260040161066690610f4d565b60405180910390fd5b8173ffffffffffffffffffffffffffffffffffffffff1663a9059cbb33836040518363ffffffff1660e01b81526004016106aa929190610f6d565b6020604051808303816000875af11580156106c9573d6000803e3d6000fd5b505050506040513d601f19601f820116820180604052508101906106ed9190610e07565b50505050565b6106fb6109e9565b6000805b600160003373ffffffffffffffffffffffffffffffffffffffff1673ffffffffffffffffffffffffffffffffffffffff168152602001908152602001600020805490508110156107c35783600160003373ffffffffffffffffffffffffffffffffffffffff1673ffffffffffffffffffffffffffffffffffffffff168152602001908152602001600020828154811061079b5761079a610f96565b5b9060005260206000200154036107b057600191505b80806107bb90610eb9565b9150506106ff565b5080610804576040517f08c379a00000000000000000000000000000000000000000000000000000000081526004016107fb90611011565b60405180910390fd5b6000808481526020019081526020016000206040518060600160405290816000820160009054906101000a900473ffffffffffffffffffffffffffffffffffffffff1673ffffffffffffffffffffffffffffffffffffffff1673ffffffffffffffffffffffffffffffffffffffff16815260200160018201548152602001600282015481525050915050919050565b60026020528060005260406000206000915090505481565b60006020528060005260406000206000915090508060000160009054906101000a900473ffffffffffffffffffffffffffffffffffffffff16908060010154908060020154905083565b60045481565b6001602052816000526040600020818154811061091757600080fd5b90600052602060002001600091509150505481565b600080600080848152602001908152602001600020600101546004546109529190611031565b905060008110156109785760028161096a9190611065565b816109759190611031565b90505b8060646109859190611031565b600260003373ffffffffffffffffffffffffffffffffffffffff1673ffffffffffffffffffffffffffffffffffffffff16815260200190815260200160002060008282546109d39190610e63565b9250508190555080915050919050565b60035481565b6040518060600160405280600073ffffffffffffffffffffffffffffffffffffffff16815260200160008152602001600081525090565b600080fd5b6000819050919050565b610a3881610a25565b8114610a4357600080fd5b50565b600081359050610a5581610a2f565b92915050565b600073ffffffffffffffffffffffffffffffffffffffff82169050919050565b6000610a8682610a5b565b9050919050565b610a9681610a7b565b8114610aa157600080fd5b50565b600081359050610ab381610a8d565b92915050565b60008060408385031215610ad057610acf610a20565b5b6000610ade85828601610a46565b9250506020610aef85828601610aa4565b9150509250929050565b60008060408385031215610b1057610b0f610a20565b5b6000610b1e85828601610a46565b9250506020610b2f85828601610a46565b9150509250929050565b600060208284031215610b4f57610b4e610a20565b5b6000610b5d84828501610aa4565b91505092915050565b600060208284031215610b7c57610b7b610a20565b5b6000610b8a84828501610a46565b91505092915050565b610b9c81610a7b565b82525050565b610bab81610a25565b82525050565b606082016000820151610bc76000850182610b93565b506020820151610bda6020850182610ba2565b506040820151610bed6040850182610ba2565b50505050565b6000606082019050610c086000830184610bb1565b92915050565b610c1781610a25565b82525050565b6000602082019050610c326000830184610c0e565b92915050565b610c4181610a7b565b82525050565b6000606082019050610c5c6000830186610c38565b610c696020830185610c0e565b610c766040830184610c0e565b949350505050565b60008060408385031215610c9557610c94610a20565b5b6000610ca385828601610aa4565b9250506020610cb485828601610a46565b9150509250929050565b6000602082019050610cd36000830184610c38565b92915050565b600081519050610ce881610a2f565b92915050565b600060208284031215610d0457610d03610a20565b5b6000610d1284828501610cd9565b91505092915050565b600082825260208201905092915050565b7f61707020646f6573206e6f74206861766520656e6f7567682066756e64730000600082015250565b6000610d62601e83610d1b565b9150610d6d82610d2c565b602082019050919050565b60006020820190508181036000830152610d9181610d55565b9050919050565b6000606082019050610dad6000830186610c38565b610dba6020830185610c38565b610dc76040830184610c0e565b949350505050565b60008115159050919050565b610de481610dcf565b8114610def57600080fd5b50565b600081519050610e0181610ddb565b92915050565b600060208284031215610e1d57610e1c610a20565b5b6000610e2b84828501610df2565b91505092915050565b7f4e487b7100000000000000000000000000000000000000000000000000000000600052601160045260246000fd5b6000610e6e82610a25565b9150610e7983610a25565b9250827fffffffffffffffffffffffffffffffffffffffffffffffffffffffffffffffff03821115610eae57610ead610e34565b5b828201905092915050565b6000610ec482610a25565b91507fffffffffffffffffffffffffffffffffffffffffffffffffffffffffffffffff8203610ef657610ef5610e34565b5b600182019050919050565b7f6e6f20756e636c61696d65640000000000000000000000000000000000000000600082015250565b6000610f37600c83610d1b565b9150610f4282610f01565b602082019050919050565b60006020820190508181036000830152610f6681610f2a565b9050919050565b6000604082019050610f826000830185610c38565b610f8f6020830184610c0e565b9392505050565b7f4e487b7100000000000000000000000000000000000000000000000000000000600052603260045260246000fd5b7f796f752068617327742070757263686173652061727469636c65000000000000600082015250565b6000610ffb601a83610d1b565b915061100682610fc5565b602082019050919050565b6000602082019050818103600083015261102a81610fee565b9050919050565b600061103c82610a25565b915061104783610a25565b92508282101561105a57611059610e34565b5b828203905092915050565b600061107082610a25565b915061107b83610a25565b9250817fffffffffffffffffffffffffffffffffffffffffffffffffffffffffffffffff04831182151516156110b4576110b3610e34565b5b82820290509291505056fea264697066735822122067abc7cb9177ced6e991f98a62fdd2fcfe1a3e9ed8e5df1cc9055606d92d68cc64736f6c634300080d0033",
  "immutableReferences": {},
  "source": "// SPDX-License-Identifier: Unlicence\r\npragma solidity ^0.8.4;\r\n\r\nimport \"./kxshareToken.sol\";\r\n\r\ncontract predictMarket {\r\n  struct predict {\r\n    address predictor;\r\n    uint value;\r\n    uint amount;\r\n  }\r\n  mapping(uint => predict) public predicts;\r\n  mapping(address => uint[]) public purchasedPredicts;\r\n  mapping(address => uint) public unclaimed;\r\n  uint public predictCount;\r\n  uint public provisionalNum;\r\n\r\n  constructor(){\r\n    predictCount = 0;\r\n    provisionalNum = 100;\r\n  }\r\n\r\n  function makePredict(uint _value, uint _amount) public {\r\n    predicts[predictCount] = predict(msg.sender, _value, _amount);\r\n    predictCount ++;\r\n  }\r\n\r\n  function showResult(uint _id) public returns(uint){\r\n    uint result = provisionalNum - predicts[_id].value;\r\n    if(result < 0){\r\n      result = result - (result*2);\r\n    }\r\n    unclaimed[msg.sender] += 100 - result;\r\n    return result;\r\n  }\r\n\r\n  function buyPredict(uint _id, address _tokenAddr) public payable {\r\n    uint _amount = predicts[_id].amount;\r\n    ERC20 token = ERC20(_tokenAddr);\r\n    require(token.balanceOf(address(this)) >= _amount, \"app does not have enough funds\");\r\n    token.transferFrom(msg.sender, address(this), _amount);\r\n    purchasedPredicts[msg.sender].push(_id);\r\n    unclaimed[predicts[_id].predictor] += _amount;\r\n  }\r\n\r\n  function viewPredict(uint _id) public view returns(predict memory) {\r\n    bool viewable = false;\r\n    for(uint i=0;i < purchasedPredicts[msg.sender].length;i++){\r\n      if(purchasedPredicts[msg.sender][i] == _id){\r\n        viewable = true;\r\n      }\r\n    }\r\n    require(viewable, \"you has't purchase article\");\r\n    return predicts[_id];\r\n  }\r\n\r\n  function claim(address _tokenAddr) public {\r\n    ERC20 token = ERC20(_tokenAddr);\r\n    uint _amount = unclaimed[msg.sender];\r\n    unclaimed[msg.sender] = 0;\r\n    require(_amount > 0, \"no unclaimed\");\r\n    token.transfer(msg.sender, _amount);\r\n  }\r\n}\r\n",
  "sourcePath": "/home/kirua/blockchain/product/kxshare/contracts/predictMarket.sol",
  "compiler": {
    "name": "solc",
    "version": "0.8.13+commit.abaa5c0e.Emscripten.clang"
  },
  "schemaVersion": "3.4.7",
  "updatedAt": "2022-05-21T08:21:46.703Z",
  "networkType": "ethereum",
  "devdoc": {
    "kind": "dev",
    "methods": {},
    "version": 1
  },
  "userdoc": {
    "kind": "user",
    "methods": {},
    "version": 1
  }
}