{
  "contractName": "predictMarket",
  "abi": [
    {
      "inputs": [],
      "stateMutability": "nonpayable",
      "type": "constructor"
    },
    {
      "inputs": [],
      "name": "predictCount",
      "outputs": [
        {
          "internalType": "uint256",
          "name": "",
          "type": "uint256"
        }
      ],
      "stateMutability": "view",
      "type": "function"
    },
    {
      "inputs": [
        {
          "internalType": "uint256",
          "name": "",
          "type": "uint256"
        }
      ],
      "name": "predicts",
      "outputs": [
        {
          "internalType": "address",
          "name": "predictor",
          "type": "address"
        },
        {
          "internalType": "uint256",
          "name": "value",
          "type": "uint256"
        },
        {
          "internalType": "uint256",
          "name": "amount",
          "type": "uint256"
        }
      ],
      "stateMutability": "view",
      "type": "function"
    },
    {
      "inputs": [],
      "name": "provisionalNum",
      "outputs": [
        {
          "internalType": "uint256",
          "name": "",
          "type": "uint256"
        }
      ],
      "stateMutability": "view",
      "type": "function"
    },
    {
      "inputs": [
        {
          "internalType": "address",
          "name": "",
          "type": "address"
        },
        {
          "internalType": "uint256",
          "name": "",
          "type": "uint256"
        }
      ],
      "name": "purchasedPredicts",
      "outputs": [
        {
          "internalType": "uint256",
          "name": "",
          "type": "uint256"
        }
      ],
      "stateMutability": "view",
      "type": "function"
    },
    {
      "inputs": [
        {
          "internalType": "address",
          "name": "",
          "type": "address"
        }
      ],
      "name": "unclaimed",
      "outputs": [
        {
          "internalType": "uint256",
          "name": "",
          "type": "uint256"
        }
      ],
      "stateMutability": "view",
      "type": "function"
    },
    {
      "inputs": [
        {
          "internalType": "uint256",
          "name": "_value",
          "type": "uint256"
        },
        {
          "internalType": "uint256",
          "name": "_amount",
          "type": "uint256"
        }
      ],
      "name": "makePredict",
      "outputs": [],
      "stateMutability": "nonpayable",
      "type": "function"
    },
    {
      "inputs": [
        {
          "internalType": "uint256",
          "name": "_id",
          "type": "uint256"
        }
      ],
      "name": "showResult",
      "outputs": [
        {
          "internalType": "uint256",
          "name": "",
          "type": "uint256"
        }
      ],
      "stateMutability": "nonpayable",
      "type": "function"
    },
    {
      "inputs": [
        {
          "internalType": "uint256",
          "name": "_id",
          "type": "uint256"
        },
        {
          "internalType": "address",
          "name": "_tokenAddr",
          "type": "address"
        }
      ],
      "name": "buyPredict",
      "outputs": [],
      "stateMutability": "nonpayable",
      "type": "function"
    },
    {
      "inputs": [
        {
          "internalType": "uint256",
          "name": "_id",
          "type": "uint256"
        }
      ],
      "name": "viewPredict",
      "outputs": [
        {
          "components": [
            {
              "internalType": "address",
              "name": "predictor",
              "type": "address"
            },
            {
              "internalType": "uint256",
              "name": "value",
              "type": "uint256"
            },
            {
              "internalType": "uint256",
              "name": "amount",
              "type": "uint256"
            }
          ],
          "internalType": "struct predictMarket.predict",
          "name": "",
          "type": "tuple"
        }
      ],
      "stateMutability": "view",
      "type": "function"
    },
    {
      "inputs": [
        {
          "internalType": "address",
          "name": "_tokenAddr",
          "type": "address"
        }
      ],
      "name": "claim",
      "outputs": [],
      "stateMutability": "nonpayable",
      "type": "function"
    }
  ],
  "bytecode": "0x608060405234801561001057600080fd5b506000600381905550606460048190555061108d806100306000396000f3fe608060405234801561001057600080fd5b506004361061009d5760003560e01c80635a763e95116100665780635a763e95146101565780637498e038146101885780637e199acf146101a6578063ed6ad2f8146101d6578063f51f9a1d146102065761009d565b8062f286c2146100a257806316221fc2146100be5780631e83409a146100da5780633fe73a64146100f6578063505bd3da14610126575b600080fd5b6100bc60048036038101906100b79190610a51565b610224565b005b6100d860048036038101906100d39190610a91565b610477565b005b6100f460048036038101906100ef9190610ad1565b610536565b005b610110600480360381019061010b9190610afe565b61068b565b60405161011d9190610b8b565b60405180910390f35b610140600480360381019061013b9190610ad1565b61082b565b60405161014d9190610bb5565b60405180910390f35b610170600480360381019061016b9190610afe565b610843565b60405161017f93929190610bdf565b60405180910390f35b61019061088d565b60405161019d9190610bb5565b60405180910390f35b6101c060048036038101906101bb9190610c16565b610893565b6040516101cd9190610bb5565b60405180910390f35b6101f060048036038101906101eb9190610afe565b6108c4565b6040516101fd9190610bb5565b60405180910390f35b61020e61097b565b60405161021b9190610bb5565b60405180910390f35b60008060008481526020019081526020016000206002015490506000829050818173ffffffffffffffffffffffffffffffffffffffff166370a08231306040518263ffffffff1660e01b815260040161027d9190610c56565b602060405180830381865afa15801561029a573d6000803e3d6000fd5b505050506040513d601f19601f820116820180604052508101906102be9190610c86565b10156102ff576040517f08c379a00000000000000000000000000000000000000000000000000000000081526004016102f690610d10565b60405180910390fd5b8073ffffffffffffffffffffffffffffffffffffffff166323b872dd3330856040518463ffffffff1660e01b815260040161033c93929190610d30565b6020604051808303816000875af115801561035b573d6000803e3d6000fd5b505050506040513d601f19601f8201168201806040525081019061037f9190610d9f565b50600160003373ffffffffffffffffffffffffffffffffffffffff1673ffffffffffffffffffffffffffffffffffffffff168152602001908152602001600020849080600181540180825580915050600190039060005260206000200160009091909190915055816002600080600088815260200190815260200160002060000160009054906101000a900473ffffffffffffffffffffffffffffffffffffffff1673ffffffffffffffffffffffffffffffffffffffff1673ffffffffffffffffffffffffffffffffffffffff168152602001908152602001600020600082825461046a9190610dfb565b9250508190555050505050565b60405180606001604052803373ffffffffffffffffffffffffffffffffffffffff16815260200183815260200182815250600080600354815260200190815260200160002060008201518160000160006101000a81548173ffffffffffffffffffffffffffffffffffffffff021916908373ffffffffffffffffffffffffffffffffffffffff16021790555060208201518160010155604082015181600201559050506003600081548092919061052d90610e51565b91905055505050565b60008190506000600260003373ffffffffffffffffffffffffffffffffffffffff1673ffffffffffffffffffffffffffffffffffffffff1681526020019081526020016000205490506000600260003373ffffffffffffffffffffffffffffffffffffffff1673ffffffffffffffffffffffffffffffffffffffff1681526020019081526020016000208190555060008111610607576040517f08c379a00000000000000000000000000000000000000000000000000000000081526004016105fe90610ee5565b60405180910390fd5b8173ffffffffffffffffffffffffffffffffffffffff1663a9059cbb33836040518363ffffffff1660e01b8152600401610642929190610f05565b6020604051808303816000875af1158015610661573d6000803e3d6000fd5b505050506040513d601f19601f820116820180604052508101906106859190610d9f565b50505050565b610693610981565b6000805b600160003373ffffffffffffffffffffffffffffffffffffffff1673ffffffffffffffffffffffffffffffffffffffff1681526020019081526020016000208054905081101561075b5783600160003373ffffffffffffffffffffffffffffffffffffffff1673ffffffffffffffffffffffffffffffffffffffff168152602001908152602001600020828154811061073357610732610f2e565b5b90600052602060002001540361074857600191505b808061075390610e51565b915050610697565b508061079c576040517f08c379a000000000000000000000000000000000000000000000000000000000815260040161079390610fa9565b60405180910390fd5b6000808481526020019081526020016000206040518060600160405290816000820160009054906101000a900473ffffffffffffffffffffffffffffffffffffffff1673ffffffffffffffffffffffffffffffffffffffff1673ffffffffffffffffffffffffffffffffffffffff16815260200160018201548152602001600282015481525050915050919050565b60026020528060005260406000206000915090505481565b60006020528060005260406000206000915090508060000160009054906101000a900473ffffffffffffffffffffffffffffffffffffffff16908060010154908060020154905083565b60045481565b600160205281600052604060002081815481106108af57600080fd5b90600052602060002001600091509150505481565b600080600080848152602001908152602001600020600101546004546108ea9190610fc9565b90506000811015610910576002816109029190610ffd565b8161090d9190610fc9565b90505b80606461091d9190610fc9565b600260003373ffffffffffffffffffffffffffffffffffffffff1673ffffffffffffffffffffffffffffffffffffffff168152602001908152602001600020600082825461096b9190610dfb565b9250508190555080915050919050565b60035481565b6040518060600160405280600073ffffffffffffffffffffffffffffffffffffffff16815260200160008152602001600081525090565b600080fd5b6000819050919050565b6109d0816109bd565b81146109db57600080fd5b50565b6000813590506109ed816109c7565b92915050565b600073ffffffffffffffffffffffffffffffffffffffff82169050919050565b6000610a1e826109f3565b9050919050565b610a2e81610a13565b8114610a3957600080fd5b50565b600081359050610a4b81610a25565b92915050565b60008060408385031215610a6857610a676109b8565b5b6000610a76858286016109de565b9250506020610a8785828601610a3c565b9150509250929050565b60008060408385031215610aa857610aa76109b8565b5b6000610ab6858286016109de565b9250506020610ac7858286016109de565b9150509250929050565b600060208284031215610ae757610ae66109b8565b5b6000610af584828501610a3c565b91505092915050565b600060208284031215610b1457610b136109b8565b5b6000610b22848285016109de565b91505092915050565b610b3481610a13565b82525050565b610b43816109bd565b82525050565b606082016000820151610b5f6000850182610b2b565b506020820151610b726020850182610b3a565b506040820151610b856040850182610b3a565b50505050565b6000606082019050610ba06000830184610b49565b92915050565b610baf816109bd565b82525050565b6000602082019050610bca6000830184610ba6565b92915050565b610bd981610a13565b82525050565b6000606082019050610bf46000830186610bd0565b610c016020830185610ba6565b610c0e6040830184610ba6565b949350505050565b60008060408385031215610c2d57610c2c6109b8565b5b6000610c3b85828601610a3c565b9250506020610c4c858286016109de565b9150509250929050565b6000602082019050610c6b6000830184610bd0565b92915050565b600081519050610c80816109c7565b92915050565b600060208284031215610c9c57610c9b6109b8565b5b6000610caa84828501610c71565b91505092915050565b600082825260208201905092915050565b7f61707020646f6573206e6f74206861766520656e6f7567682066756e64730000600082015250565b6000610cfa601e83610cb3565b9150610d0582610cc4565b602082019050919050565b60006020820190508181036000830152610d2981610ced565b9050919050565b6000606082019050610d456000830186610bd0565b610d526020830185610bd0565b610d5f6040830184610ba6565b949350505050565b60008115159050919050565b610d7c81610d67565b8114610d8757600080fd5b50565b600081519050610d9981610d73565b92915050565b600060208284031215610db557610db46109b8565b5b6000610dc384828501610d8a565b91505092915050565b7f4e487b7100000000000000000000000000000000000000000000000000000000600052601160045260246000fd5b6000610e06826109bd565b9150610e11836109bd565b9250827fffffffffffffffffffffffffffffffffffffffffffffffffffffffffffffffff03821115610e4657610e45610dcc565b5b828201905092915050565b6000610e5c826109bd565b91507fffffffffffffffffffffffffffffffffffffffffffffffffffffffffffffffff8203610e8e57610e8d610dcc565b5b600182019050919050565b7f6e6f20756e636c61696d65640000000000000000000000000000000000000000600082015250565b6000610ecf600c83610cb3565b9150610eda82610e99565b602082019050919050565b60006020820190508181036000830152610efe81610ec2565b9050919050565b6000604082019050610f1a6000830185610bd0565b610f276020830184610ba6565b9392505050565b7f4e487b7100000000000000000000000000000000000000000000000000000000600052603260045260246000fd5b7f796f75206861736e27742070757263686173652061727469636c650000000000600082015250565b6000610f93601b83610cb3565b9150610f9e82610f5d565b602082019050919050565b60006020820190508181036000830152610fc281610f86565b9050919050565b6000610fd4826109bd565b9150610fdf836109bd565b925082821015610ff257610ff1610dcc565b5b828203905092915050565b6000611008826109bd565b9150611013836109bd565b9250817fffffffffffffffffffffffffffffffffffffffffffffffffffffffffffffffff048311821515161561104c5761104b610dcc565b5b82820290509291505056fea26469706673582212203874a03c2af4e243c6ba96e9ae0ba1e9a55bf9e43c653036fcde8db6e8def1e564736f6c634300080d0033",
  "immutableReferences": {},
  "source": "// SPDX-License-Identifier: Unlicence\r\npragma solidity ^0.8.4;\r\n\r\nimport \"./kxshareToken.sol\";\r\n\r\ncontract predictMarket {\r\n  struct predict {\r\n    address predictor;\r\n    uint value;\r\n    uint amount;\r\n  }\r\n  mapping(uint => predict) public predicts;\r\n  mapping(address => uint[]) public purchasedPredicts;\r\n  mapping(address => uint) public unclaimed;\r\n  uint public predictCount;\r\n  uint public provisionalNum;\r\n\r\n  constructor(){\r\n    predictCount = 0;\r\n    provisionalNum = 100;\r\n  }\r\n\r\n  function makePredict(uint _value, uint _amount) public {\r\n    predicts[predictCount] = predict(msg.sender, _value, _amount);\r\n    predictCount ++;\r\n  }\r\n\r\n  function showResult(uint _id) public returns(uint){\r\n    uint result = provisionalNum - predicts[_id].value;\r\n    if(result < 0){\r\n      result = result - (result*2);\r\n    }\r\n    unclaimed[msg.sender] += 100 - result;\r\n    return result;\r\n  }\r\n\r\n  function buyPredict(uint _id, address _tokenAddr) public {\r\n    uint _amount = predicts[_id].amount;\r\n    ERC20 token = ERC20(_tokenAddr);\r\n    require(token.balanceOf(address(this)) >= _amount, \"app does not have enough funds\");\r\n    token.transferFrom(msg.sender, address(this), _amount);\r\n    purchasedPredicts[msg.sender].push(_id);\r\n    unclaimed[predicts[_id].predictor] += _amount;\r\n  }\r\n\r\n  function viewPredict(uint _id) public view returns(predict memory) {\r\n    bool viewable = false;\r\n    for(uint i=0;i < purchasedPredicts[msg.sender].length;i++){\r\n      if(purchasedPredicts[msg.sender][i] == _id){\r\n        viewable = true;\r\n      }\r\n    }\r\n    require(viewable, \"you hasn't purchase article\");\r\n    return predicts[_id];\r\n  }\r\n\r\n  function claim(address _tokenAddr) public {\r\n    ERC20 token = ERC20(_tokenAddr);\r\n    uint _amount = unclaimed[msg.sender];\r\n    unclaimed[msg.sender] = 0;\r\n    require(_amount > 0, \"no unclaimed\");\r\n    token.transfer(msg.sender, _amount);\r\n  }\r\n}\r\n",
  "sourcePath": "/home/kirua/blockchain/product/kxshare/contracts/predictMarket.sol",
  "compiler": {
    "name": "solc",
    "version": "0.8.13+commit.abaa5c0e.Emscripten.clang"
  },
  "schemaVersion": "3.4.7",
  "updatedAt": "2022-05-21T17:45:27.790Z",
  "devdoc": {
    "kind": "dev",
    "methods": {},
    "version": 1
  },
  "userdoc": {
    "kind": "user",
    "methods": {},
    "version": 1
  }
}